{
  "address": "0x5FbDB2315678afecb367f032d93F642f64180aa3",
  "abi": [
    {
      "inputs": [],
      "stateMutability": "nonpayable",
      "type": "constructor"
    },
    {
      "inputs": [
        {
          "internalType": "address",
          "name": "nftAddress",
          "type": "address"
        },
        {
          "internalType": "uint256",
          "name": "tokenId",
          "type": "uint256"
        }
      ],
      "name": "Nft_AlreadyListed",
      "type": "error"
    },
    {
      "inputs": [],
      "name": "Nft__NotApprovedForMarket",
      "type": "error"
    },
    {
      "inputs": [
        {
          "internalType": "address",
          "name": "nftAddress",
          "type": "address"
        },
        {
          "internalType": "uint256",
          "name": "tokenId",
          "type": "uint256"
        }
      ],
      "name": "Nft__NotListed",
      "type": "error"
    },
    {
      "inputs": [
        {
          "internalType": "address",
          "name": "owner",
          "type": "address"
        }
      ],
      "name": "Nft__NotOwner",
      "type": "error"
    },
    {
      "inputs": [],
      "name": "Nft__NotOwnerEth",
      "type": "error"
    },
    {
      "inputs": [],
      "name": "Nft__PriceMustBeAboveZero",
      "type": "error"
    },
    {
      "inputs": [],
      "name": "Nft__TransferFailed",
      "type": "error"
    },
    {
      "inputs": [],
      "name": "Nft__YouAreBroke",
      "type": "error"
    },
    {
      "anonymous": false,
      "inputs": [
        {
          "indexed": true,
          "internalType": "address",
          "name": "buyer",
          "type": "address"
        },
        {
          "indexed": true,
          "internalType": "address",
          "name": "nftAddress",
          "type": "address"
        },
        {
          "indexed": true,
          "internalType": "uint256",
          "name": "tokenId",
          "type": "uint256"
        },
        {
          "indexed": false,
          "internalType": "uint256",
          "name": "price",
          "type": "uint256"
        }
      ],
      "name": "ItemBought",
      "type": "event"
    },
    {
      "anonymous": false,
      "inputs": [
        {
          "indexed": true,
          "internalType": "address",
          "name": "seller",
          "type": "address"
        },
        {
          "indexed": true,
          "internalType": "address",
          "name": "nftAddress",
          "type": "address"
        },
        {
          "indexed": false,
          "internalType": "uint256",
          "name": "tokenId",
          "type": "uint256"
        }
      ],
      "name": "ItemCanceled",
      "type": "event"
    },
    {
      "anonymous": false,
      "inputs": [
        {
          "indexed": true,
          "internalType": "address",
          "name": "seller",
          "type": "address"
        },
        {
          "indexed": true,
          "internalType": "address",
          "name": "nftAddress",
          "type": "address"
        },
        {
          "indexed": true,
          "internalType": "uint256",
          "name": "price",
          "type": "uint256"
        },
        {
          "indexed": false,
          "internalType": "uint256",
          "name": "tokenId",
          "type": "uint256"
        }
      ],
      "name": "ItemListed",
      "type": "event"
    },
    {
      "inputs": [
        {
          "internalType": "address",
          "name": "nftAddress",
          "type": "address"
        },
        {
          "internalType": "uint256",
          "name": "tokenId",
          "type": "uint256"
        }
      ],
      "name": "buy_item",
      "outputs": [],
      "stateMutability": "payable",
      "type": "function"
    },
    {
      "inputs": [
        {
          "internalType": "address",
          "name": "nftAddress",
          "type": "address"
        },
        {
          "internalType": "uint256",
          "name": "tokenId",
          "type": "uint256"
        }
      ],
      "name": "cancel_listing",
      "outputs": [],
      "stateMutability": "nonpayable",
      "type": "function"
    },
    {
      "inputs": [
        {
          "internalType": "address",
          "name": "nftAddress",
          "type": "address"
        },
        {
          "internalType": "uint256",
          "name": "tokenId",
          "type": "uint256"
        }
      ],
      "name": "getListing",
      "outputs": [
        {
          "components": [
            {
              "internalType": "uint256",
              "name": "price",
              "type": "uint256"
            },
            {
              "internalType": "address",
              "name": "seller",
              "type": "address"
            }
          ],
          "internalType": "struct NftMarketplace.Listing",
          "name": "",
          "type": "tuple"
        }
      ],
      "stateMutability": "view",
      "type": "function"
    },
    {
      "inputs": [
        {
          "internalType": "address",
          "name": "seller",
          "type": "address"
        }
      ],
      "name": "getProceeds",
      "outputs": [
        {
          "internalType": "uint256",
          "name": "",
          "type": "uint256"
        }
      ],
      "stateMutability": "view",
      "type": "function"
    },
    {
      "inputs": [
        {
          "internalType": "address",
          "name": "nftAddress",
          "type": "address"
        },
        {
          "internalType": "uint256",
          "name": "tokenId",
          "type": "uint256"
        },
        {
          "internalType": "uint256",
          "name": "price",
          "type": "uint256"
        }
      ],
      "name": "list_item",
      "outputs": [],
      "stateMutability": "nonpayable",
      "type": "function"
    },
    {
      "inputs": [
        {
          "internalType": "uint256",
          "name": "price",
          "type": "uint256"
        },
        {
          "internalType": "address",
          "name": "nftAddress",
          "type": "address"
        },
        {
          "internalType": "uint256",
          "name": "tokenId",
          "type": "uint256"
        }
      ],
      "name": "update_listing",
      "outputs": [],
      "stateMutability": "nonpayable",
      "type": "function"
    },
    {
      "inputs": [],
      "name": "withdraw_proceeds",
      "outputs": [],
      "stateMutability": "nonpayable",
      "type": "function"
    }
  ],
  "transactionHash": "0x8c295a8ff766e62382eda29268230361f77004cdf8ed81cfb77010359cdcd784",
  "args": [],
  "numDeployments": 1,
  "solcInputHash": "01b7734276313b4ad6dea87095503965",
  "bytecode": "0x608060405234801561001057600080fd5b506001600081905550611807806100286000396000f3fe6080604052600436106100705760003560e01c806359cd10b91161004e57806359cd10b9146100f757806388700d1c14610120578063bc1010d81461015d578063c9c943711461017457610070565b8063119d9d771461007557806330cfeda91461009e5780633824da6b146100db575b600080fd5b34801561008157600080fd5b5061009c60048036038101906100979190611418565b61019d565b005b3480156100aa57600080fd5b506100c560048036038101906100c0919061146b565b6104ec565b6040516100d291906114a7565b60405180910390f35b6100f560048036038101906100f091906114c2565b610535565b005b34801561010357600080fd5b5061011e600480360381019061011991906114c2565b610991565b005b34801561012c57600080fd5b50610147600480360381019061014291906114c2565b610c96565b604051610154919061154f565b60405180910390f35b34801561016957600080fd5b50610172610d61565b005b34801561018057600080fd5b5061019b6004803603810190610196919061156a565b610ecb565b005b81816000600160008473ffffffffffffffffffffffffffffffffffffffff1673ffffffffffffffffffffffffffffffffffffffff1681526020019081526020016000206000838152602001908152602001600020604051806040016040529081600082015481526020016001820160009054906101000a900473ffffffffffffffffffffffffffffffffffffffff1673ffffffffffffffffffffffffffffffffffffffff1673ffffffffffffffffffffffffffffffffffffffff1681525050905060008160000151116102a95782826040517fdb9cba7e0000000000000000000000000000000000000000000000000000000081526004016102a09291906115cc565b60405180910390fd5b848433600083905060008173ffffffffffffffffffffffffffffffffffffffff16636352211e856040518263ffffffff1660e01b81526004016102ec91906114a7565b60206040518083038186803b15801561030457600080fd5b505afa158015610318573d6000803e3d6000fd5b505050506040513d601f19601f8201168201806040525081019061033c919061160a565b90508273ffffffffffffffffffffffffffffffffffffffff168173ffffffffffffffffffffffffffffffffffffffff1614156103af57826040517f7076ebe60000000000000000000000000000000000000000000000000000000081526004016103a69190611637565b60405180910390fd5b6000600160008c73ffffffffffffffffffffffffffffffffffffffff1673ffffffffffffffffffffffffffffffffffffffff16815260200190815260200160002060008b8152602001908152602001600020604051806040016040529081600082015481526020016001820160009054906101000a900473ffffffffffffffffffffffffffffffffffffffff1673ffffffffffffffffffffffffffffffffffffffff1673ffffffffffffffffffffffffffffffffffffffff168152505090508b8160000181815250508b8b73ffffffffffffffffffffffffffffffffffffffff163373ffffffffffffffffffffffffffffffffffffffff167fd547e933094f12a9159076970143ebe73234e64480317844b0dcb36117116de48d6040516104d691906114a7565b60405180910390a4505050505050505050505050565b6000600260008373ffffffffffffffffffffffffffffffffffffffff1673ffffffffffffffffffffffffffffffffffffffff168152602001908152602001600020549050919050565b81816000600160008473ffffffffffffffffffffffffffffffffffffffff1673ffffffffffffffffffffffffffffffffffffffff1681526020019081526020016000206000838152602001908152602001600020604051806040016040529081600082015481526020016001820160009054906101000a900473ffffffffffffffffffffffffffffffffffffffff1673ffffffffffffffffffffffffffffffffffffffff1673ffffffffffffffffffffffffffffffffffffffff1681525050905060008160000151116106415782826040517fdb9cba7e0000000000000000000000000000000000000000000000000000000081526004016106389291906115cc565b60405180910390fd5b60026000541415610687576040517f08c379a000000000000000000000000000000000000000000000000000000000815260040161067e906116af565b60405180910390fd5b60026000819055506000600160008773ffffffffffffffffffffffffffffffffffffffff1673ffffffffffffffffffffffffffffffffffffffff1681526020019081526020016000206000868152602001908152602001600020604051806040016040529081600082015481526020016001820160009054906101000a900473ffffffffffffffffffffffffffffffffffffffff1673ffffffffffffffffffffffffffffffffffffffff1673ffffffffffffffffffffffffffffffffffffffff16815250509050806000015134101561078c576040517fd0412f2500000000000000000000000000000000000000000000000000000000815260040160405180910390fd5b3460026000836020015173ffffffffffffffffffffffffffffffffffffffff1673ffffffffffffffffffffffffffffffffffffffff168152602001908152602001600020546107db91906116fe565b60026000836020015173ffffffffffffffffffffffffffffffffffffffff1673ffffffffffffffffffffffffffffffffffffffff16815260200190815260200160002081905550600160008773ffffffffffffffffffffffffffffffffffffffff1673ffffffffffffffffffffffffffffffffffffffff16815260200190815260200160002060008681526020019081526020016000206000808201600090556001820160006101000a81549073ffffffffffffffffffffffffffffffffffffffff021916905550508573ffffffffffffffffffffffffffffffffffffffff166342842e0e826020015133886040518463ffffffff1660e01b81526004016108e593929190611754565b600060405180830381600087803b1580156108ff57600080fd5b505af1158015610913573d6000803e3d6000fd5b50505050848673ffffffffffffffffffffffffffffffffffffffff163373ffffffffffffffffffffffffffffffffffffffff167f263223b1dd81e51054a4e6f791d45a4a1ddb4aadcd93a2dfd892615c3fdac187846000015160405161097991906114a7565b60405180910390a45060016000819055505050505050565b818133600083905060008173ffffffffffffffffffffffffffffffffffffffff16636352211e856040518263ffffffff1660e01b81526004016109d491906114a7565b60206040518083038186803b1580156109ec57600080fd5b505afa158015610a00573d6000803e3d6000fd5b505050506040513d601f19601f82011682018060405250810190610a24919061160a565b90508273ffffffffffffffffffffffffffffffffffffffff168173ffffffffffffffffffffffffffffffffffffffff161415610a9757826040517f7076ebe6000000000000000000000000000000000000000000000000000000008152600401610a8e9190611637565b60405180910390fd5b86866000600160008473ffffffffffffffffffffffffffffffffffffffff1673ffffffffffffffffffffffffffffffffffffffff1681526020019081526020016000206000838152602001908152602001600020604051806040016040529081600082015481526020016001820160009054906101000a900473ffffffffffffffffffffffffffffffffffffffff1673ffffffffffffffffffffffffffffffffffffffff1673ffffffffffffffffffffffffffffffffffffffff168152505090506000816000015111610ba35782826040517fdb9cba7e000000000000000000000000000000000000000000000000000000008152600401610b9a9291906115cc565b60405180910390fd5b600160008b73ffffffffffffffffffffffffffffffffffffffff1673ffffffffffffffffffffffffffffffffffffffff16815260200190815260200160002060008a81526020019081526020016000206000808201600090556001820160006101000a81549073ffffffffffffffffffffffffffffffffffffffff021916905550508973ffffffffffffffffffffffffffffffffffffffff163373ffffffffffffffffffffffffffffffffffffffff167f9ba1a3cb55ce8d63d072a886f94d2a744f50cddf82128e897d0661f5ec6231588b604051610c8291906114a7565b60405180910390a350505050505050505050565b610c9e61134f565b600160008473ffffffffffffffffffffffffffffffffffffffff1673ffffffffffffffffffffffffffffffffffffffff1681526020019081526020016000206000838152602001908152602001600020604051806040016040529081600082015481526020016001820160009054906101000a900473ffffffffffffffffffffffffffffffffffffffff1673ffffffffffffffffffffffffffffffffffffffff1673ffffffffffffffffffffffffffffffffffffffff1681525050905092915050565b6000600260003373ffffffffffffffffffffffffffffffffffffffff1673ffffffffffffffffffffffffffffffffffffffff16815260200190815260200160002054905060008111610ddf576040517f63b6c6da00000000000000000000000000000000000000000000000000000000815260040160405180910390fd5b6000600260003373ffffffffffffffffffffffffffffffffffffffff1673ffffffffffffffffffffffffffffffffffffffff1681526020019081526020016000208190555060003373ffffffffffffffffffffffffffffffffffffffff1682604051610e4a906117bc565b60006040518083038185875af1925050503d8060008114610e87576040519150601f19603f3d011682016040523d82523d6000602084013e610e8c565b606091505b5050905080610ec7576040517f2b32964600000000000000000000000000000000000000000000000000000000815260040160405180910390fd5b5050565b8282336000600160008573ffffffffffffffffffffffffffffffffffffffff1673ffffffffffffffffffffffffffffffffffffffff1681526020019081526020016000206000848152602001908152602001600020604051806040016040529081600082015481526020016001820160009054906101000a900473ffffffffffffffffffffffffffffffffffffffff1673ffffffffffffffffffffffffffffffffffffffff1673ffffffffffffffffffffffffffffffffffffffff16815250509050600081600001511115610fd95783836040517fc1224bee000000000000000000000000000000000000000000000000000000008152600401610fd09291906115cc565b60405180910390fd5b868633600083905060008173ffffffffffffffffffffffffffffffffffffffff16636352211e856040518263ffffffff1660e01b815260040161101c91906114a7565b60206040518083038186803b15801561103457600080fd5b505afa158015611048573d6000803e3d6000fd5b505050506040513d601f19601f8201168201806040525081019061106c919061160a565b90508273ffffffffffffffffffffffffffffffffffffffff168173ffffffffffffffffffffffffffffffffffffffff1614156110df57826040517f7076ebe60000000000000000000000000000000000000000000000000000000081526004016110d69190611637565b60405180910390fd5b60008a11611119576040517fab08fa3300000000000000000000000000000000000000000000000000000000815260040160405180910390fd5b60008c90503073ffffffffffffffffffffffffffffffffffffffff168173ffffffffffffffffffffffffffffffffffffffff1663081812fc8e6040518263ffffffff1660e01b815260040161116e91906114a7565b60206040518083038186803b15801561118657600080fd5b505afa15801561119a573d6000803e3d6000fd5b505050506040513d601f19601f820116820180604052508101906111be919061160a565b73ffffffffffffffffffffffffffffffffffffffff161461120b576040517f80ea61b200000000000000000000000000000000000000000000000000000000815260040160405180910390fd5b60405180604001604052808c81526020013373ffffffffffffffffffffffffffffffffffffffff16815250600160008f73ffffffffffffffffffffffffffffffffffffffff1673ffffffffffffffffffffffffffffffffffffffff16815260200190815260200160002060008e81526020019081526020016000206000820151816000015560208201518160010160006101000a81548173ffffffffffffffffffffffffffffffffffffffff021916908373ffffffffffffffffffffffffffffffffffffffff1602179055509050508a8d73ffffffffffffffffffffffffffffffffffffffff163373ffffffffffffffffffffffffffffffffffffffff167fd547e933094f12a9159076970143ebe73234e64480317844b0dcb36117116de48f60405161133891906114a7565b60405180910390a450505050505050505050505050565b604051806040016040528060008152602001600073ffffffffffffffffffffffffffffffffffffffff1681525090565b600080fd5b6000819050919050565b61139781611384565b81146113a257600080fd5b50565b6000813590506113b48161138e565b92915050565b600073ffffffffffffffffffffffffffffffffffffffff82169050919050565b60006113e5826113ba565b9050919050565b6113f5816113da565b811461140057600080fd5b50565b600081359050611412816113ec565b92915050565b6000806000606084860312156114315761143061137f565b5b600061143f868287016113a5565b935050602061145086828701611403565b9250506040611461868287016113a5565b9150509250925092565b6000602082840312156114815761148061137f565b5b600061148f84828501611403565b91505092915050565b6114a181611384565b82525050565b60006020820190506114bc6000830184611498565b92915050565b600080604083850312156114d9576114d861137f565b5b60006114e785828601611403565b92505060206114f8858286016113a5565b9150509250929050565b61150b81611384565b82525050565b61151a816113da565b82525050565b6040820160008201516115366000850182611502565b5060208201516115496020850182611511565b50505050565b60006040820190506115646000830184611520565b92915050565b6000806000606084860312156115835761158261137f565b5b600061159186828701611403565b93505060206115a2868287016113a5565b92505060406115b3868287016113a5565b9150509250925092565b6115c6816113da565b82525050565b60006040820190506115e160008301856115bd565b6115ee6020830184611498565b9392505050565b600081519050611604816113ec565b92915050565b6000602082840312156116205761161f61137f565b5b600061162e848285016115f5565b91505092915050565b600060208201905061164c60008301846115bd565b92915050565b600082825260208201905092915050565b7f5265656e7472616e637947756172643a207265656e7472616e742063616c6c00600082015250565b6000611699601f83611652565b91506116a482611663565b602082019050919050565b600060208201905081810360008301526116c88161168c565b9050919050565b7f4e487b7100000000000000000000000000000000000000000000000000000000600052601160045260246000fd5b600061170982611384565b915061171483611384565b9250827fffffffffffffffffffffffffffffffffffffffffffffffffffffffffffffffff03821115611749576117486116cf565b5b828201905092915050565b600060608201905061176960008301866115bd565b61177660208301856115bd565b6117836040830184611498565b949350505050565b600081905092915050565b50565b60006117a660008361178b565b91506117b182611796565b600082019050919050565b60006117c782611799565b915081905091905056fea264697066735822122054a66b400bc77d5b09ec9f28c28ad5005e3beb823d6e341375bb47bdbd88629d64736f6c63430008080033",
  "devdoc": {
    "kind": "dev",
    "methods": {},
    "version": 1
  },
  "userdoc": {
    "kind": "user",
    "methods": {},
    "version": 1
  },
  "storageLayout": {
    "storage": [
      {
        "astId": 10,
        "contract": "contracts/NftMarketplace.sol:NftMarketplace",
        "label": "_status",
        "offset": 0,
        "slot": "0",
        "type": "t_uint256"
      },
      {
        "astId": 1871,
        "contract": "contracts/NftMarketplace.sol:NftMarketplace",
        "label": "s_listings",
        "offset": 0,
        "slot": "1",
        "type": "t_mapping(t_address,t_mapping(t_uint256,t_struct(Listing)1745_storage))"
      },
      {
        "astId": 1875,
        "contract": "contracts/NftMarketplace.sol:NftMarketplace",
        "label": "s_procceeds",
        "offset": 0,
        "slot": "2",
        "type": "t_mapping(t_address,t_uint256)"
      }
    ],
    "types": {
      "t_address": {
        "encoding": "inplace",
        "label": "address",
        "numberOfBytes": "20"
      },
      "t_mapping(t_address,t_mapping(t_uint256,t_struct(Listing)1745_storage))": {
        "encoding": "mapping",
        "key": "t_address",
        "label": "mapping(address => mapping(uint256 => struct NftMarketplace.Listing))",
        "numberOfBytes": "32",
        "value": "t_mapping(t_uint256,t_struct(Listing)1745_storage)"
      },
      "t_mapping(t_address,t_uint256)": {
        "encoding": "mapping",
        "key": "t_address",
        "label": "mapping(address => uint256)",
        "numberOfBytes": "32",
        "value": "t_uint256"
      },
      "t_mapping(t_uint256,t_struct(Listing)1745_storage)": {
        "encoding": "mapping",
        "key": "t_uint256",
        "label": "mapping(uint256 => struct NftMarketplace.Listing)",
        "numberOfBytes": "32",
        "value": "t_struct(Listing)1745_storage"
      },
      "t_struct(Listing)1745_storage": {
        "encoding": "inplace",
        "label": "struct NftMarketplace.Listing",
        "members": [
          {
            "astId": 1742,
            "contract": "contracts/NftMarketplace.sol:NftMarketplace",
            "label": "price",
            "offset": 0,
            "slot": "0",
            "type": "t_uint256"
          },
          {
            "astId": 1744,
            "contract": "contracts/NftMarketplace.sol:NftMarketplace",
            "label": "seller",
            "offset": 0,
            "slot": "1",
            "type": "t_address"
          }
        ],
        "numberOfBytes": "64"
      },
      "t_uint256": {
        "encoding": "inplace",
        "label": "uint256",
        "numberOfBytes": "32"
      }
    }
  }
}